{
  "_format": "hh-sol-artifact-1",
  "contractName": "FeeDelegationManager",
  "sourceName": "contracts/FeeDelegation.sol",
  "abi": [
    {
      "inputs": [],
      "stateMutability": "nonpayable",
      "type": "constructor"
    },
    {
      "inputs": [
        {
          "internalType": "address",
          "name": "owner",
          "type": "address"
        }
      ],
      "name": "OwnableInvalidOwner",
      "type": "error"
    },
    {
      "inputs": [
        {
          "internalType": "address",
          "name": "account",
          "type": "address"
        }
      ],
      "name": "OwnableUnauthorizedAccount",
      "type": "error"
    },
    {
      "anonymous": false,
      "inputs": [
        {
          "indexed": false,
          "internalType": "uint256",
          "name": "maxCredit",
          "type": "uint256"
        },
        {
          "indexed": false,
          "internalType": "uint256",
          "name": "recoveryRate",
          "type": "uint256"
        }
      ],
      "name": "CreditPlanUpdated",
      "type": "event"
    },
    {
      "anonymous": false,
      "inputs": [
        {
          "indexed": true,
          "internalType": "address",
          "name": "ngo",
          "type": "address"
        },
        {
          "indexed": false,
          "internalType": "uint256",
          "name": "amount",
          "type": "uint256"
        }
      ],
      "name": "DepositReceived",
      "type": "event"
    },
    {
      "anonymous": false,
      "inputs": [
        {
          "indexed": true,
          "internalType": "address",
          "name": "previousOwner",
          "type": "address"
        },
        {
          "indexed": true,
          "internalType": "address",
          "name": "newOwner",
          "type": "address"
        }
      ],
      "name": "OwnershipTransferred",
      "type": "event"
    },
    {
      "anonymous": false,
      "inputs": [
        {
          "indexed": true,
          "internalType": "address",
          "name": "ngo",
          "type": "address"
        },
        {
          "indexed": true,
          "internalType": "address",
          "name": "volunteer",
          "type": "address"
        }
      ],
      "name": "VolunteerAdded",
      "type": "event"
    },
    {
      "anonymous": false,
      "inputs": [
        {
          "indexed": true,
          "internalType": "address",
          "name": "ngo",
          "type": "address"
        },
        {
          "indexed": true,
          "internalType": "address",
          "name": "volunteer",
          "type": "address"
        }
      ],
      "name": "VolunteerRemoved",
      "type": "event"
    },
    {
      "anonymous": false,
      "inputs": [
        {
          "indexed": true,
          "internalType": "address",
          "name": "ngo",
          "type": "address"
        },
        {
          "indexed": false,
          "internalType": "uint256",
          "name": "amount",
          "type": "uint256"
        }
      ],
      "name": "WithdrawalMade",
      "type": "event"
    },
    {
      "inputs": [],
      "name": "MAX_CREDIT",
      "outputs": [
        {
          "internalType": "uint256",
          "name": "",
          "type": "uint256"
        }
      ],
      "stateMutability": "view",
      "type": "function"
    },
    {
      "inputs": [],
      "name": "MINIMUM_DEPOSIT",
      "outputs": [
        {
          "internalType": "uint256",
          "name": "",
          "type": "uint256"
        }
      ],
      "stateMutability": "view",
      "type": "function"
    },
    {
      "inputs": [],
      "name": "PROTOTYPE",
      "outputs": [
        {
          "internalType": "contract IPrototype",
          "name": "",
          "type": "address"
        }
      ],
      "stateMutability": "view",
      "type": "function"
    },
    {
      "inputs": [],
      "name": "RECOVERY_RATE",
      "outputs": [
        {
          "internalType": "uint256",
          "name": "",
          "type": "uint256"
        }
      ],
      "stateMutability": "view",
      "type": "function"
    },
    {
      "inputs": [
        {
          "internalType": "address",
          "name": "_volunteer",
          "type": "address"
        }
      ],
      "name": "addVolunteer",
      "outputs": [],
      "stateMutability": "nonpayable",
      "type": "function"
    },
    {
      "inputs": [
        {
          "internalType": "address[]",
          "name": "_volunteers",
          "type": "address[]"
        }
      ],
      "name": "addVolunteerBatch",
      "outputs": [],
      "stateMutability": "nonpayable",
      "type": "function"
    },
    {
      "inputs": [],
      "name": "depositForSponsorship",
      "outputs": [],
      "stateMutability": "payable",
      "type": "function"
    },
    {
      "inputs": [
        {
          "internalType": "address",
          "name": "_volunteer",
          "type": "address"
        }
      ],
      "name": "getAvailableCredit",
      "outputs": [
        {
          "internalType": "uint256",
          "name": "",
          "type": "uint256"
        }
      ],
      "stateMutability": "view",
      "type": "function"
    },
    {
      "inputs": [],
      "name": "getCreditPlan",
      "outputs": [
        {
          "internalType": "uint256",
          "name": "maxCredit",
          "type": "uint256"
        },
        {
          "internalType": "uint256",
          "name": "recoveryRate",
          "type": "uint256"
        }
      ],
      "stateMutability": "view",
      "type": "function"
    },
    {
      "inputs": [
        {
          "internalType": "address",
          "name": "_ngo",
          "type": "address"
        }
      ],
      "name": "getNGODeposit",
      "outputs": [
        {
          "internalType": "uint256",
          "name": "",
          "type": "uint256"
        }
      ],
      "stateMutability": "view",
      "type": "function"
    },
    {
      "inputs": [
        {
          "internalType": "address",
          "name": "_ngo",
          "type": "address"
        }
      ],
      "name": "getNGOVolunteers",
      "outputs": [
        {
          "internalType": "address[]",
          "name": "",
          "type": "address[]"
        }
      ],
      "stateMutability": "view",
      "type": "function"
    },
    {
      "inputs": [
        {
          "internalType": "address",
          "name": "",
          "type": "address"
        },
        {
          "internalType": "address",
          "name": "",
          "type": "address"
        }
      ],
      "name": "isApprovedVolunteer",
      "outputs": [
        {
          "internalType": "bool",
          "name": "",
          "type": "bool"
        }
      ],
      "stateMutability": "view",
      "type": "function"
    },
    {
      "inputs": [
        {
          "internalType": "address",
          "name": "_volunteer",
          "type": "address"
        }
      ],
      "name": "isSponsored",
      "outputs": [
        {
          "internalType": "bool",
          "name": "",
          "type": "bool"
        }
      ],
      "stateMutability": "view",
      "type": "function"
    },
    {
      "inputs": [
        {
          "internalType": "address",
          "name": "",
          "type": "address"
        }
      ],
      "name": "ngoDeposits",
      "outputs": [
        {
          "internalType": "uint256",
          "name": "",
          "type": "uint256"
        }
      ],
      "stateMutability": "view",
      "type": "function"
    },
    {
      "inputs": [
        {
          "internalType": "address",
          "name": "",
          "type": "address"
        },
        {
          "internalType": "uint256",
          "name": "",
          "type": "uint256"
        }
      ],
      "name": "ngoVolunteers",
      "outputs": [
        {
          "internalType": "address",
          "name": "",
          "type": "address"
        }
      ],
      "stateMutability": "view",
      "type": "function"
    },
    {
      "inputs": [],
      "name": "owner",
      "outputs": [
        {
          "internalType": "address",
          "name": "",
          "type": "address"
        }
      ],
      "stateMutability": "view",
      "type": "function"
    },
    {
      "inputs": [
        {
          "internalType": "address",
          "name": "_volunteer",
          "type": "address"
        }
      ],
      "name": "removeVolunteer",
      "outputs": [],
      "stateMutability": "nonpayable",
      "type": "function"
    },
    {
      "inputs": [],
      "name": "renounceOwnership",
      "outputs": [],
      "stateMutability": "nonpayable",
      "type": "function"
    },
    {
      "inputs": [
        {
          "internalType": "address",
          "name": "newOwner",
          "type": "address"
        }
      ],
      "name": "transferOwnership",
      "outputs": [],
      "stateMutability": "nonpayable",
      "type": "function"
    },
    {
      "inputs": [
        {
          "internalType": "uint256",
          "name": "_maxCredit",
          "type": "uint256"
        },
        {
          "internalType": "uint256",
          "name": "_recoveryRate",
          "type": "uint256"
        }
      ],
      "name": "updateCreditPlan",
      "outputs": [],
      "stateMutability": "nonpayable",
      "type": "function"
    },
    {
      "inputs": [
        {
          "internalType": "uint256",
          "name": "_amount",
          "type": "uint256"
        }
      ],
      "name": "withdraw",
      "outputs": [],
      "stateMutability": "nonpayable",
      "type": "function"
    },
    {
      "stateMutability": "payable",
      "type": "receive"
    }
  ],
  "bytecode": "0x608060405234801561001057600080fd5b50338061003757604051631e4fbdf760e01b81526000600482015260240160405180910390fd5b610040816100bc565b50604051633659f8ed60e01b8152306004820152683635c9adc5dea000006024820152670de0b6b3a764000060448201526850726f746f7479706590633659f8ed90606401600060405180830381600087803b15801561009f57600080fd5b505af11580156100b3573d6000803e3d6000fd5b5050505061010c565b600080546001600160a01b038381166001600160a01b0319831681178455604051919092169283917f8be0079c531659141344cd1fd0a4f28419497f9722a3daafe3b4186f6b6457e09190a35050565b6111438061011b6000396000f3fe60806040526004361061012d5760003560e01c8063890273fc116100ab578063cb4577401161006f578063cb457740146103cf578063deaed6c3146103f9578063e31e826614610419578063f19451d814610435578063f2fde38b14610451578063fba1340e1461047157600080fd5b8063890273fc146103065780638da5cb5b1461032657806393635eff1461034457806396e18d931461038f578063b9b929fd146103af57600080fd5b806338eca117116100f257806338eca11714610251578063405250531461027e57806343ffaae214610286578063715018a6146102bb5780638113e78b146102d057600080fd5b8062d321cd146101925780631b2ab283146101c25780631de574b6146101e45780632e1a7d4d146102115780632fcae4421461023157600080fd5b3661018d573360009081526003602052604081208054349290610151908490610ec1565b909155505060405134815233907f9936746a4565f9766fa768f88f56a7487c78780ac179562773d1c75c5269537e9060200160405180910390a2005b600080fd5b34801561019e57600080fd5b506101af683635c9adc5dea0000081565b6040519081526020015b60405180910390f35b3480156101ce57600080fd5b506101e26101dd366004610ed4565b610491565b005b3480156101f057600080fd5b506101af6101ff366004610f65565b60036020526000908152604090205481565b34801561021d57600080fd5b506101e261022c366004610f87565b61065b565b34801561023d57600080fd5b506101e261024c366004610f65565b610798565b34801561025d57600080fd5b5061027161026c366004610f65565b6108b9565b6040516101b99190610fa0565b6101e261092f565b34801561029257600080fd5b506102a36850726f746f7479706581565b6040516001600160a01b0390911681526020016101b9565b3480156102c757600080fd5b506101e26109d6565b3480156102dc57600080fd5b506101af6102eb366004610f65565b6001600160a01b031660009081526003602052604090205490565b34801561031257600080fd5b506101e2610321366004610f65565b6109ea565b34801561033257600080fd5b506000546001600160a01b03166102a3565b34801561035057600080fd5b5061037f61035f366004610fed565b600260209081526000928352604080842090915290825290205460ff1681565b60405190151581526020016101b9565b34801561039b57600080fd5b506102a36103aa366004611020565b610b9e565b3480156103bb57600080fd5b506101af6103ca366004610f65565b610bd6565b3480156103db57600080fd5b506103e4610c56565b604080519283526020830191909152016101b9565b34801561040557600080fd5b506101e261041436600461104a565b610cca565b34801561042557600080fd5b506101af670de0b6b3a764000081565b34801561044157600080fd5b506101af678ac7230489e8000081565b34801561045d57600080fd5b506101e261046c366004610f65565b610d77565b34801561047d57600080fd5b5061037f61048c366004610f65565b610db5565b33600090815260036020526040902054678ac7230489e8000011156104f45760405162461bcd60e51b8152602060048201526014602482015273125b9cdd59999a58da595b9d0819195c1bdcda5d60621b60448201526064015b60405180910390fd5b60005b818110156106565760008383838181106105135761051361106c565b90506020020160208101906105289190610f65565b3360009081526002602090815260408083206001600160a01b038516845290915290205490915060ff1661064357604051631194768960e31b81523060048201526001600160a01b03821660248201526850726f746f7479706590638ca3b44890604401600060405180830381600087803b1580156105a657600080fd5b505af11580156105ba573d6000803e3d6000fd5b5050336000818152600160208181526040808420805480850182559085528285200180546001600160a01b0319166001600160a01b038a1690811790915585855260028352818520818652909252808420805460ff191690931790925590519094509192507f69ff8ecfbdc6598fbfdcf1cbbcd6e663108645ca1df5da520d3ce17eca5b689691a35b508061064e81611082565b9150506104f7565b505050565b336000908152600360205260409020548111156106b15760405162461bcd60e51b8152602060048201526014602482015273496e73756666696369656e742062616c616e636560601b60448201526064016104eb565b33600090815260036020526040812080548392906106d090849061109b565b9091555050604051600090339083908381818185875af1925050503d8060008114610717576040519150601f19603f3d011682016040523d82523d6000602084013e61071c565b606091505b505090508061075f5760405162461bcd60e51b815260206004820152600f60248201526e151c985b9cd9995c8819985a5b1959608a1b60448201526064016104eb565b60405182815233907fbc158bb64f05d6383aea69bbb0b20c1bbf4b7a18f63359c5649b7c39e29d38849060200160405180910390a25050565b3360009081526002602090815260408083206001600160a01b038516845290915290205460ff166107fa5760405162461bcd60e51b815260206004820152600c60248201526b139bdd08185c1c1c9bdd995960a21b60448201526064016104eb565b6040516322928d6b60e01b81523060048201526001600160a01b03821660248201526850726f746f74797065906322928d6b90604401600060405180830381600087803b15801561084a57600080fd5b505af115801561085e573d6000803e3d6000fd5b50503360008181526002602090815260408083206001600160a01b0388168085529252808320805460ff19169055519094509192507f5cda982b027590b6beaac31477d568d4445a18b832dc7dec52258822a74ffdf291a350565b6001600160a01b03811660009081526001602090815260409182902080548351818402810184019094528084526060939283018282801561092357602002820191906000526020600020905b81546001600160a01b03168152600190910190602001808311610905575b50505050509050919050565b678ac7230489e8000034101561097b5760405162461bcd60e51b815260206004820152601160248201527011195c1bdcda5d081d1bdbc81cdb585b1b607a1b60448201526064016104eb565b336000908152600360205260408120805434929061099a908490610ec1565b909155505060405134815233907f9936746a4565f9766fa768f88f56a7487c78780ac179562773d1c75c5269537e9060200160405180910390a2565b6109de610e2e565b6109e86000610e5b565b565b33600090815260036020526040902054678ac7230489e800001115610a485760405162461bcd60e51b8152602060048201526014602482015273125b9cdd59999a58da595b9d0819195c1bdcda5d60621b60448201526064016104eb565b3360009081526002602090815260408083206001600160a01b038516845290915290205460ff1615610aaf5760405162461bcd60e51b815260206004820152601060248201526f105b1c9958591e48185c1c1c9bdd995960821b60448201526064016104eb565b604051631194768960e31b81523060048201526001600160a01b03821660248201526850726f746f7479706590638ca3b44890604401600060405180830381600087803b158015610aff57600080fd5b505af1158015610b13573d6000803e3d6000fd5b5050336000818152600160208181526040808420805480850182559085528285200180546001600160a01b0319166001600160a01b038a1690811790915585855260028352818520818652909252808420805460ff191690931790925590519094509192507f69ff8ecfbdc6598fbfdcf1cbbcd6e663108645ca1df5da520d3ce17eca5b689691a350565b60016020528160005260406000208181548110610bba57600080fd5b6000918252602090912001546001600160a01b03169150829050565b60405163c9c4fc4160e01b81523060048201526001600160a01b03821660248201526000906850726f746f747970659063c9c4fc4190604401602060405180830381865afa158015610c2c573d6000803e3d6000fd5b505050506040513d601f19601f82011682018060405250810190610c5091906110ae565b92915050565b604051632037d16d60e21b815230600482015260009081906850726f746f74797065906380df45b4906024016040805180830381865afa158015610c9e573d6000803e3d6000fd5b505050506040513d601f19601f82011682018060405250810190610cc291906110c7565b915091509091565b610cd2610e2e565b604051633659f8ed60e01b815230600482015260248101839052604481018290526850726f746f7479706590633659f8ed90606401600060405180830381600087803b158015610d2157600080fd5b505af1158015610d35573d6000803e3d6000fd5b505060408051858152602081018590527fc72a8760ef04f1b9e9916487ec03c581d53a677db32872a75f354bcc8ba9a2e5935001905060405180910390a15050565b610d7f610e2e565b6001600160a01b038116610da957604051631e4fbdf760e01b8152600060048201526024016104eb565b610db281610e5b565b50565b604051625a87b960e31b81523060048201526001600160a01b03821660248201526000906850726f746f74797065906302d43dc890604401602060405180830381865afa158015610e0a573d6000803e3d6000fd5b505050506040513d601f19601f82011682018060405250810190610c5091906110eb565b6000546001600160a01b031633146109e85760405163118cdaa760e01b81523360048201526024016104eb565b600080546001600160a01b038381166001600160a01b0319831681178455604051919092169283917f8be0079c531659141344cd1fd0a4f28419497f9722a3daafe3b4186f6b6457e09190a35050565b634e487b7160e01b600052601160045260246000fd5b80820180821115610c5057610c50610eab565b60008060208385031215610ee757600080fd5b823567ffffffffffffffff80821115610eff57600080fd5b818501915085601f830112610f1357600080fd5b813581811115610f2257600080fd5b8660208260051b8501011115610f3757600080fd5b60209290920196919550909350505050565b80356001600160a01b0381168114610f6057600080fd5b919050565b600060208284031215610f7757600080fd5b610f8082610f49565b9392505050565b600060208284031215610f9957600080fd5b5035919050565b6020808252825182820181905260009190848201906040850190845b81811015610fe15783516001600160a01b031683529284019291840191600101610fbc565b50909695505050505050565b6000806040838503121561100057600080fd5b61100983610f49565b915061101760208401610f49565b90509250929050565b6000806040838503121561103357600080fd5b61103c83610f49565b946020939093013593505050565b6000806040838503121561105d57600080fd5b50508035926020909101359150565b634e487b7160e01b600052603260045260246000fd5b60006001820161109457611094610eab565b5060010190565b81810381811115610c5057610c50610eab565b6000602082840312156110c057600080fd5b5051919050565b600080604083850312156110da57600080fd5b505080516020909101519092909150565b6000602082840312156110fd57600080fd5b81518015158114610f8057600080fdfea26469706673582212202ec1c7bb5a282bd42615c8f2dc7c44943d910e5f90843fc0d28cd9a462540e7864736f6c63430008140033",
  "linkReferences": {},
  "deployedLinkReferences": {}
}