{
  "_format": "hh-sol-artifact-1",
  "contractName": "Governance",
  "sourceName": "contracts/Governance.sol",
  "abi": [
    {
      "inputs": [
        {
          "internalType": "address",
          "name": "_token",
          "type": "address"
        },
        {
          "internalType": "address",
          "name": "_stakingPool",
          "type": "address"
        }
      ],
      "stateMutability": "nonpayable",
      "type": "constructor"
    },
    {
      "anonymous": false,
      "inputs": [
        {
          "indexed": true,
          "internalType": "uint256",
          "name": "proposalId",
          "type": "uint256"
        },
        {
          "indexed": true,
          "internalType": "address",
          "name": "commenter",
          "type": "address"
        },
        {
          "indexed": false,
          "internalType": "bytes32",
          "name": "ipfsHash",
          "type": "bytes32"
        },
        {
          "indexed": false,
          "internalType": "uint256",
          "name": "commentId",
          "type": "uint256"
        }
      ],
      "name": "CommentAdded",
      "type": "event"
    },
    {
      "anonymous": false,
      "inputs": [
        {
          "indexed": true,
          "internalType": "uint256",
          "name": "id",
          "type": "uint256"
        }
      ],
      "name": "ProposalCancelled",
      "type": "event"
    },
    {
      "anonymous": false,
      "inputs": [
        {
          "indexed": true,
          "internalType": "uint256",
          "name": "id",
          "type": "uint256"
        },
        {
          "indexed": true,
          "internalType": "address",
          "name": "proposer",
          "type": "address"
        },
        {
          "indexed": false,
          "internalType": "bytes32",
          "name": "ipfsHash",
          "type": "bytes32"
        },
        {
          "indexed": false,
          "internalType": "uint256",
          "name": "startTime",
          "type": "uint256"
        },
        {
          "indexed": false,
          "internalType": "uint256",
          "name": "endTime",
          "type": "uint256"
        }
      ],
      "name": "ProposalCreated",
      "type": "event"
    },
    {
      "anonymous": false,
      "inputs": [
        {
          "indexed": true,
          "internalType": "uint256",
          "name": "id",
          "type": "uint256"
        }
      ],
      "name": "ProposalExecuted",
      "type": "event"
    },
    {
      "anonymous": false,
      "inputs": [
        {
          "indexed": true,
          "internalType": "uint256",
          "name": "id",
          "type": "uint256"
        },
        {
          "indexed": true,
          "internalType": "address",
          "name": "voter",
          "type": "address"
        },
        {
          "indexed": false,
          "internalType": "enum Governance.VoteOption",
          "name": "option",
          "type": "uint8"
        },
        {
          "indexed": false,
          "internalType": "uint256",
          "name": "weight",
          "type": "uint256"
        }
      ],
      "name": "VoteCast",
      "type": "event"
    },
    {
      "inputs": [],
      "name": "MIN_STAKE",
      "outputs": [
        {
          "internalType": "uint256",
          "name": "",
          "type": "uint256"
        }
      ],
      "stateMutability": "view",
      "type": "function"
    },
    {
      "inputs": [],
      "name": "VOTING_PERIOD",
      "outputs": [
        {
          "internalType": "uint256",
          "name": "",
          "type": "uint256"
        }
      ],
      "stateMutability": "view",
      "type": "function"
    },
    {
      "inputs": [
        {
          "internalType": "uint256",
          "name": "proposalId",
          "type": "uint256"
        },
        {
          "internalType": "bytes32",
          "name": "ipfsHash",
          "type": "bytes32"
        }
      ],
      "name": "addComment",
      "outputs": [],
      "stateMutability": "nonpayable",
      "type": "function"
    },
    {
      "inputs": [
        {
          "internalType": "uint256",
          "name": "id",
          "type": "uint256"
        }
      ],
      "name": "cancelProposal",
      "outputs": [],
      "stateMutability": "nonpayable",
      "type": "function"
    },
    {
      "inputs": [
        {
          "internalType": "uint256",
          "name": "id",
          "type": "uint256"
        },
        {
          "internalType": "enum Governance.VoteOption",
          "name": "option",
          "type": "uint8"
        }
      ],
      "name": "castVote",
      "outputs": [],
      "stateMutability": "nonpayable",
      "type": "function"
    },
    {
      "inputs": [
        {
          "internalType": "bytes32",
          "name": "ipfsHash",
          "type": "bytes32"
        }
      ],
      "name": "createProposal",
      "outputs": [
        {
          "internalType": "uint256",
          "name": "",
          "type": "uint256"
        }
      ],
      "stateMutability": "nonpayable",
      "type": "function"
    },
    {
      "inputs": [
        {
          "internalType": "uint256",
          "name": "id",
          "type": "uint256"
        }
      ],
      "name": "executeProposal",
      "outputs": [],
      "stateMutability": "nonpayable",
      "type": "function"
    },
    {
      "inputs": [
        {
          "internalType": "uint256",
          "name": "proposalId",
          "type": "uint256"
        }
      ],
      "name": "getAllComments",
      "outputs": [
        {
          "internalType": "address[]",
          "name": "commenters",
          "type": "address[]"
        },
        {
          "internalType": "bytes32[]",
          "name": "ipfsHashes",
          "type": "bytes32[]"
        },
        {
          "internalType": "uint256[]",
          "name": "timestamps",
          "type": "uint256[]"
        }
      ],
      "stateMutability": "view",
      "type": "function"
    },
    {
      "inputs": [],
      "name": "getAllProposalIds",
      "outputs": [
        {
          "internalType": "uint256[]",
          "name": "",
          "type": "uint256[]"
        }
      ],
      "stateMutability": "view",
      "type": "function"
    },
    {
      "inputs": [
        {
          "internalType": "uint256",
          "name": "proposalId",
          "type": "uint256"
        },
        {
          "internalType": "uint256",
          "name": "commentId",
          "type": "uint256"
        }
      ],
      "name": "getComment",
      "outputs": [
        {
          "internalType": "address",
          "name": "commenter",
          "type": "address"
        },
        {
          "internalType": "bytes32",
          "name": "ipfsHash",
          "type": "bytes32"
        },
        {
          "internalType": "uint256",
          "name": "timestamp",
          "type": "uint256"
        }
      ],
      "stateMutability": "view",
      "type": "function"
    },
    {
      "inputs": [
        {
          "internalType": "uint256",
          "name": "proposalId",
          "type": "uint256"
        }
      ],
      "name": "getCommentCount",
      "outputs": [
        {
          "internalType": "uint256",
          "name": "",
          "type": "uint256"
        }
      ],
      "stateMutability": "view",
      "type": "function"
    },
    {
      "inputs": [
        {
          "internalType": "uint256",
          "name": "id",
          "type": "uint256"
        }
      ],
      "name": "getProposal",
      "outputs": [
        {
          "internalType": "address",
          "name": "proposer",
          "type": "address"
        },
        {
          "internalType": "bytes32",
          "name": "ipfsHash",
          "type": "bytes32"
        },
        {
          "internalType": "uint256",
          "name": "startTime",
          "type": "uint256"
        },
        {
          "internalType": "uint256",
          "name": "endTime",
          "type": "uint256"
        },
        {
          "internalType": "uint256",
          "name": "forVotes",
          "type": "uint256"
        },
        {
          "internalType": "uint256",
          "name": "againstVotes",
          "type": "uint256"
        },
        {
          "internalType": "uint256",
          "name": "abstainVotes",
          "type": "uint256"
        },
        {
          "internalType": "bool",
          "name": "executed",
          "type": "bool"
        },
        {
          "internalType": "bool",
          "name": "cancelled",
          "type": "bool"
        }
      ],
      "stateMutability": "view",
      "type": "function"
    },
    {
      "inputs": [
        {
          "internalType": "uint256",
          "name": "id",
          "type": "uint256"
        }
      ],
      "name": "getProposalState",
      "outputs": [
        {
          "internalType": "enum Governance.ProposalState",
          "name": "",
          "type": "uint8"
        }
      ],
      "stateMutability": "view",
      "type": "function"
    },
    {
      "inputs": [
        {
          "internalType": "uint256",
          "name": "id",
          "type": "uint256"
        },
        {
          "internalType": "address",
          "name": "user",
          "type": "address"
        }
      ],
      "name": "getUserVote",
      "outputs": [
        {
          "internalType": "enum Governance.VoteOption",
          "name": "",
          "type": "uint8"
        }
      ],
      "stateMutability": "view",
      "type": "function"
    },
    {
      "inputs": [
        {
          "internalType": "uint256",
          "name": "id",
          "type": "uint256"
        },
        {
          "internalType": "address",
          "name": "user",
          "type": "address"
        }
      ],
      "name": "hasVoted",
      "outputs": [
        {
          "internalType": "bool",
          "name": "",
          "type": "bool"
        }
      ],
      "stateMutability": "view",
      "type": "function"
    },
    {
      "inputs": [
        {
          "internalType": "uint256",
          "name": "",
          "type": "uint256"
        },
        {
          "internalType": "uint256",
          "name": "",
          "type": "uint256"
        }
      ],
      "name": "proposalComments",
      "outputs": [
        {
          "internalType": "address",
          "name": "commenter",
          "type": "address"
        },
        {
          "internalType": "bytes32",
          "name": "ipfsHash",
          "type": "bytes32"
        },
        {
          "internalType": "uint256",
          "name": "timestamp",
          "type": "uint256"
        }
      ],
      "stateMutability": "view",
      "type": "function"
    },
    {
      "inputs": [],
      "name": "proposalCount",
      "outputs": [
        {
          "internalType": "uint256",
          "name": "",
          "type": "uint256"
        }
      ],
      "stateMutability": "view",
      "type": "function"
    },
    {
      "inputs": [
        {
          "internalType": "uint256",
          "name": "",
          "type": "uint256"
        }
      ],
      "name": "proposals",
      "outputs": [
        {
          "internalType": "address",
          "name": "proposer",
          "type": "address"
        },
        {
          "internalType": "bytes32",
          "name": "ipfsHash",
          "type": "bytes32"
        },
        {
          "internalType": "uint256",
          "name": "startTime",
          "type": "uint256"
        },
        {
          "internalType": "uint256",
          "name": "endTime",
          "type": "uint256"
        },
        {
          "internalType": "uint256",
          "name": "forVotes",
          "type": "uint256"
        },
        {
          "internalType": "uint256",
          "name": "againstVotes",
          "type": "uint256"
        },
        {
          "internalType": "uint256",
          "name": "abstainVotes",
          "type": "uint256"
        },
        {
          "internalType": "bool",
          "name": "executed",
          "type": "bool"
        },
        {
          "internalType": "bool",
          "name": "cancelled",
          "type": "bool"
        },
        {
          "internalType": "uint256",
          "name": "commentCount",
          "type": "uint256"
        }
      ],
      "stateMutability": "view",
      "type": "function"
    },
    {
      "inputs": [],
      "name": "stakingPool",
      "outputs": [
        {
          "internalType": "contract IStakingPool",
          "name": "",
          "type": "address"
        }
      ],
      "stateMutability": "view",
      "type": "function"
    },
    {
      "inputs": [],
      "name": "token",
      "outputs": [
        {
          "internalType": "contract IB3TR",
          "name": "",
          "type": "address"
        }
      ],
      "stateMutability": "view",
      "type": "function"
    }
  ],
  "bytecode": "0x608060405234801561001057600080fd5b5060405162001714380380620017148339810160408190526100319161007e565b600080546001600160a01b039384166001600160a01b031991821617909155600180549290931691161790556100b1565b80516001600160a01b038116811461007957600080fd5b919050565b6000806040838503121561009157600080fd5b61009a83610062565b91506100a860208401610062565b90509250929050565b61165380620000c16000396000f3fe608060405234801561001057600080fd5b506004361061012c5760003560e01c806356781388116100ad578063da35c66411610071578063da35c66414610456578063e0a8f6f51461045f578063efa90d3614610472578063f61736f414610487578063fc0c546a146104cb57600080fd5b8063567813881461034d5780639080936f14610360578063b1610d7e14610380578063c7f758a81461038a578063cb1c2b5c1461044657600080fd5b80630d4bfb4f116100f45780630d4bfb4f146102815780630d61b519146102a25780632542bf06146102b557806343859632146102c8578063488927531461031557600080fd5b8063013cf08b1461013157806303926df9146101ff57806303c7881a146102215780630bf0eb61146102415780630c56ae3b14610256575b600080fd5b6101a261013f366004611344565b6003602081905260009182526040909120805460018201546002830154938301546004840154600585015460068601546007870154600a909701546001600160a01b039096169794969495939492939192909160ff80831692610100900416908a565b604080516001600160a01b03909b168b5260208b0199909952978901969096526060880194909452608087019290925260a086015260c0850152151560e08401521515610100830152610120820152610140015b60405180910390f35b61021261020d366004611344565b6104de565b6040516101f693929190611398565b61023461022f36600461142f565b6106d4565b6040516101f69190611495565b61025461024f3660046114a3565b610766565b005b600154610269906001600160a01b031681565b6040516001600160a01b0390911681526020016101f6565b61029461028f366004611344565b610919565b6040519081526020016101f6565b6102546102b0366004611344565b61095e565b6102946102c3366004611344565b610aef565b6103056102d636600461142f565b60008281526003602090815260408083206001600160a01b038516845260080190915290205460ff1692915050565b60405190151581526020016101f6565b6103286103233660046114a3565b610c35565b604080516001600160a01b0390941684526020840192909252908201526060016101f6565b61025461035b3660046114c5565b610cfd565b61037361036e366004611344565b61106d565b6040516101f691906114ee565b6102946203f48081565b6103f4610398366004611344565b6000908152600360208190526040909120805460018201546002830154938301546004840154600585015460068601546007909601546001600160a01b03909516979396959294919390929160ff808216926101009092041690565b604080516001600160a01b03909a168a5260208a0198909852968801959095526060870193909352608086019190915260a085015260c0840152151560e08301521515610100820152610120016101f6565b61029468056bc75e2d6310000081565b61029460025481565b61025461046d366004611344565b61110f565b61047a6112ac565b6040516101f69190611508565b6103286104953660046114a3565b60046020908152600092835260408084209091529082529020805460018201546002909201546001600160a01b03909116919083565b600054610269906001600160a01b031681565b60608060606000841180156104f557506002548411155b61051a5760405162461bcd60e51b815260040161051190611522565b60405180910390fd5b6000848152600360205260409020600a01548067ffffffffffffffff8111156105455761054561154c565b60405190808252806020026020018201604052801561056e578160200160208202803683370190505b5093508067ffffffffffffffff81111561058a5761058a61154c565b6040519080825280602002602001820160405280156105b3578160200160208202803683370190505b5092508067ffffffffffffffff8111156105cf576105cf61154c565b6040519080825280602002602001820160405280156105f8578160200160208202803683370190505b50915060005b818110156106cb57600086815260046020526040812081610620846001611578565b81526020810191909152604001600020805487519192506001600160a01b0316908790849081106106535761065361158b565b60200260200101906001600160a01b031690816001600160a01b031681525050806001015485838151811061068a5761068a61158b565b60200260200101818152505080600201548483815181106106ad576106ad61158b565b602090810291909101015250806106c3816115a1565b9150506105fe565b50509193909250565b60008281526003602090815260408083206001600160a01b038516845260080190915281205460ff166107355760405162461bcd60e51b8152602060048201526009602482015268139bdd081d9bdd195960ba1b6044820152606401610511565b5060008281526003602090815260408083206001600160a01b038516845260090190915290205460ff165b92915050565b6001546040516303d3b32360e51b815233600482015268056bc75e2d63100000916001600160a01b031690637a76646090602401602060405180830381865afa1580156107b7573d6000803e3d6000fd5b505050506040513d601f19601f820116820180604052508101906107db91906115ba565b10156107f95760405162461bcd60e51b8152600401610511906115d3565b60008211801561080b57506002548211155b6108275760405162461bcd60e51b815260040161051190611522565b60008281526003602052604090206007810154610100900460ff16156108845760405162461bcd60e51b8152602060048201526012602482015271141c9bdc1bdcd85b0818d85b98d95b1b195960721b6044820152606401610511565b600081600a0160008154610897906115a1565b9182905550600085815260046020908152604080832084845282529182902080546001600160a01b031916339081178255600182018890554260028301558351888152928301859052939450929187917fa961cd44c073a92d8def75bfde32b0a573aa3b2de51cf34e63e58e5c225ddc04910160405180910390a35050505050565b6000808211801561092c57506002548211155b6109485760405162461bcd60e51b815260040161051190611522565b506000908152600360205260409020600a015490565b6000818152600360205260409020811580159061097d57506002548211155b6109995760405162461bcd60e51b815260040161051190611522565b806003015442116109df5760405162461bcd60e51b815260206004820152601060248201526f159bdd1a5b99c81b9bdd08195b99195960821b6044820152606401610511565b600781015460ff1615610a275760405162461bcd60e51b815260206004820152601060248201526f105b1c9958591e48195e1958dd5d195960821b6044820152606401610511565b6007810154610100900460ff1615610a6d5760405162461bcd60e51b815260206004820152600960248201526810d85b98d95b1b195960ba1b6044820152606401610511565b8060050154816004015411610ab15760405162461bcd60e51b815260206004820152600a602482015269139bdd081c185cdcd95960b21b6044820152606401610511565b60078101805460ff1916600117905560405182907f712ae1383f79ac853f8d882153778e0260ef8f03b504e2866e0593e04d2b291f90600090a25050565b6001546040516303d3b32360e51b815233600482015260009168056bc75e2d63100000916001600160a01b0390911690637a76646090602401602060405180830381865afa158015610b45573d6000803e3d6000fd5b505050506040513d601f19601f82011682018060405250810190610b6991906115ba565b1015610b875760405162461bcd60e51b8152600401610511906115d3565b6000600260008154610b98906115a1565b9182905550600081815260036020526040902080546001600160a01b0319163317815560018101859055426002820181905591925090610bdc906203f48090611578565b600382018190556002820154604080518781526020810192909252810191909152339083907fd182bf189511986fb29d6e68504d1eec38f42b39b967e563e35b51628891254b9060600160405180910390a35092915050565b60008060008085118015610c4b57506002548511155b610c675760405162461bcd60e51b815260040161051190611522565b600084118015610c8857506000858152600360205260409020600a01548411155b610cc65760405162461bcd60e51b815260206004820152600f60248201526e125b9d985b1a590818dbdb5b595b9d608a1b6044820152606401610511565b50505060009182526004602090815260408084209284529190529020805460018201546002909201546001600160a01b0390911692565b6001546040516303d3b32360e51b815233600482015268056bc75e2d63100000916001600160a01b031690637a76646090602401602060405180830381865afa158015610d4e573d6000803e3d6000fd5b505050506040513d601f19601f82011682018060405250810190610d7291906115ba565b1015610d905760405162461bcd60e51b8152600401610511906115d3565b60008281526003602052604090208215801590610daf57506002548311155b610dcb5760405162461bcd60e51b815260040161051190611522565b8060020154421015610e0d5760405162461bcd60e51b815260206004820152600b60248201526a139bdd081cdd185c9d195960aa1b6044820152606401610511565b8060030154421115610e505760405162461bcd60e51b815260206004820152600c60248201526b159bdd1a5b99c8195b99195960a21b6044820152606401610511565b6007810154610100900460ff1615610e965760405162461bcd60e51b815260206004820152600960248201526810d85b98d95b1b195960ba1b6044820152606401610511565b33600090815260088201602052604090205460ff1615610ee85760405162461bcd60e51b815260206004820152600d60248201526c105b1c9958591e481d9bdd1959609a1b6044820152606401610511565b6001546040516303d3b32360e51b81523360048201526000916001600160a01b031690637a76646090602401602060405180830381865afa158015610f31573d6000803e3d6000fd5b505050506040513d601f19601f82011682018060405250810190610f5591906115ba565b33600090815260088401602090815260408083208054600160ff199182168117909255600988019093529220805493945086939092911690836002811115610f9f57610f9f61146b565b02179055506001836002811115610fb857610fb861146b565b03610fdc5780826004016000828254610fd19190611578565b909155506110239050565b6000836002811115610ff057610ff061146b565b036110095780826005016000828254610fd19190611578565b8082600601600082825461101d9190611578565b90915550505b336001600160a01b0316847fb83d25c6a5d258561330739951487acb4bd09ba5190b5d32c4f261817d906792858460405161105f929190611602565b60405180910390a350505050565b6000818152600360205260408120821580159061108c57506002548311155b6110a85760405162461bcd60e51b815260040161051190611522565b6007810154610100900460ff16156110c35750600492915050565b600781015460ff16156110d95750600392915050565b806003015442116110ed5750600092915050565b8060050154816004015411156111065750600292915050565b50600192915050565b6000818152600360205260409020811580159061112e57506002548211155b61114a5760405162461bcd60e51b815260040161051190611522565b80546001600160a01b031633146111935760405162461bcd60e51b815260206004820152600d60248201526c27b7363c90383937b837b9b2b960991b6044820152606401610511565b80600301544211156111d65760405162461bcd60e51b815260206004820152600c60248201526b159bdd1a5b99c8195b99195960a21b6044820152606401610511565b600781015460ff161561121e5760405162461bcd60e51b815260206004820152601060248201526f105b1c9958591e48195e1958dd5d195960821b6044820152606401610511565b6007810154610100900460ff161561126c5760405162461bcd60e51b8152602060048201526011602482015270105b1c9958591e4818d85b98d95b1b1959607a1b6044820152606401610511565b60078101805461ff00191661010017905560405182907f416e669c63d9a3a5e36ee7cc7e2104b8db28ccd286aa18966e98fa230c73b08c90600090a25050565b6060600060025467ffffffffffffffff8111156112cb576112cb61154c565b6040519080825280602002602001820160405280156112f4578160200160208202803683370190505b50905060005b60025481101561133e5761130f816001611578565b8282815181106113215761132161158b565b602090810291909101015280611336816115a1565b9150506112fa565b50919050565b60006020828403121561135657600080fd5b5035919050565b600081518084526020808501945080840160005b8381101561138d57815187529582019590820190600101611371565b509495945050505050565b606080825284519082018190526000906020906080840190828801845b828110156113da5781516001600160a01b0316845292840192908401906001016113b5565b5050508381038285015285518082528683019183019060005b8181101561140f578351835292840192918401916001016113f3565b50508481036040860152611423818761135d565b98975050505050505050565b6000806040838503121561144257600080fd5b8235915060208301356001600160a01b038116811461146057600080fd5b809150509250929050565b634e487b7160e01b600052602160045260246000fd5b600381106114915761149161146b565b9052565b602081016107608284611481565b600080604083850312156114b657600080fd5b50508035926020909101359150565b600080604083850312156114d857600080fd5b8235915060208301356003811061146057600080fd5b60208101600583106115025761150261146b565b91905290565b60208152600061151b602083018461135d565b9392505050565b60208082526010908201526f125b9d985b1a59081c1c9bdc1bdcd85b60821b604082015260600190565b634e487b7160e01b600052604160045260246000fd5b634e487b7160e01b600052601160045260246000fd5b8082018082111561076057610760611562565b634e487b7160e01b600052603260045260246000fd5b6000600182016115b3576115b3611562565b5060010190565b6000602082840312156115cc57600080fd5b5051919050565b60208082526015908201527413995959080c4c0c0ac8108cd514881cdd185ad959605a1b604082015260600190565b604081016116108285611481565b826020830152939250505056fea264697066735822122023cb12369462dd63866c61cec97f0abb4d2e29419209589ea17eafcd50caaf6d64736f6c63430008140033",
  "linkReferences": {},
  "deployedLinkReferences": {}
}