{
  "_format": "hh-sol-artifact-1",
  "contractName": "MockB3TR",
  "sourceName": "contracts/MockB3TR.sol",
  "abi": [
    {
      "inputs": [],
      "stateMutability": "nonpayable",
      "type": "constructor"
    },
    {
      "inputs": [
        {
          "internalType": "address",
          "name": "spender",
          "type": "address"
        },
        {
          "internalType": "uint256",
          "name": "allowance",
          "type": "uint256"
        },
        {
          "internalType": "uint256",
          "name": "needed",
          "type": "uint256"
        }
      ],
      "name": "ERC20InsufficientAllowance",
      "type": "error"
    },
    {
      "inputs": [
        {
          "internalType": "address",
          "name": "sender",
          "type": "address"
        },
        {
          "internalType": "uint256",
          "name": "balance",
          "type": "uint256"
        },
        {
          "internalType": "uint256",
          "name": "needed",
          "type": "uint256"
        }
      ],
      "name": "ERC20InsufficientBalance",
      "type": "error"
    },
    {
      "inputs": [
        {
          "internalType": "address",
          "name": "approver",
          "type": "address"
        }
      ],
      "name": "ERC20InvalidApprover",
      "type": "error"
    },
    {
      "inputs": [
        {
          "internalType": "address",
          "name": "receiver",
          "type": "address"
        }
      ],
      "name": "ERC20InvalidReceiver",
      "type": "error"
    },
    {
      "inputs": [
        {
          "internalType": "address",
          "name": "sender",
          "type": "address"
        }
      ],
      "name": "ERC20InvalidSender",
      "type": "error"
    },
    {
      "inputs": [
        {
          "internalType": "address",
          "name": "spender",
          "type": "address"
        }
      ],
      "name": "ERC20InvalidSpender",
      "type": "error"
    },
    {
      "anonymous": false,
      "inputs": [
        {
          "indexed": true,
          "internalType": "address",
          "name": "owner",
          "type": "address"
        },
        {
          "indexed": true,
          "internalType": "address",
          "name": "spender",
          "type": "address"
        },
        {
          "indexed": false,
          "internalType": "uint256",
          "name": "value",
          "type": "uint256"
        }
      ],
      "name": "Approval",
      "type": "event"
    },
    {
      "anonymous": false,
      "inputs": [
        {
          "indexed": true,
          "internalType": "address",
          "name": "from",
          "type": "address"
        },
        {
          "indexed": true,
          "internalType": "address",
          "name": "to",
          "type": "address"
        },
        {
          "indexed": false,
          "internalType": "uint256",
          "name": "value",
          "type": "uint256"
        }
      ],
      "name": "Transfer",
      "type": "event"
    },
    {
      "inputs": [],
      "name": "CLAIM_AMOUNT",
      "outputs": [
        {
          "internalType": "uint256",
          "name": "",
          "type": "uint256"
        }
      ],
      "stateMutability": "view",
      "type": "function"
    },
    {
      "inputs": [],
      "name": "COOLDOWN_TIME",
      "outputs": [
        {
          "internalType": "uint256",
          "name": "",
          "type": "uint256"
        }
      ],
      "stateMutability": "view",
      "type": "function"
    },
    {
      "inputs": [
        {
          "internalType": "address",
          "name": "owner",
          "type": "address"
        },
        {
          "internalType": "address",
          "name": "spender",
          "type": "address"
        }
      ],
      "name": "allowance",
      "outputs": [
        {
          "internalType": "uint256",
          "name": "",
          "type": "uint256"
        }
      ],
      "stateMutability": "view",
      "type": "function"
    },
    {
      "inputs": [
        {
          "internalType": "address",
          "name": "spender",
          "type": "address"
        },
        {
          "internalType": "uint256",
          "name": "value",
          "type": "uint256"
        }
      ],
      "name": "approve",
      "outputs": [
        {
          "internalType": "bool",
          "name": "",
          "type": "bool"
        }
      ],
      "stateMutability": "nonpayable",
      "type": "function"
    },
    {
      "inputs": [
        {
          "internalType": "address",
          "name": "account",
          "type": "address"
        }
      ],
      "name": "balanceOf",
      "outputs": [
        {
          "internalType": "uint256",
          "name": "",
          "type": "uint256"
        }
      ],
      "stateMutability": "view",
      "type": "function"
    },
    {
      "inputs": [],
      "name": "decimals",
      "outputs": [
        {
          "internalType": "uint8",
          "name": "",
          "type": "uint8"
        }
      ],
      "stateMutability": "view",
      "type": "function"
    },
    {
      "inputs": [],
      "name": "faucet",
      "outputs": [],
      "stateMutability": "nonpayable",
      "type": "function"
    },
    {
      "inputs": [
        {
          "internalType": "address",
          "name": "user",
          "type": "address"
        }
      ],
      "name": "getTimeUntilNextClaim",
      "outputs": [
        {
          "internalType": "uint256",
          "name": "",
          "type": "uint256"
        }
      ],
      "stateMutability": "view",
      "type": "function"
    },
    {
      "inputs": [
        {
          "internalType": "address",
          "name": "",
          "type": "address"
        }
      ],
      "name": "lastClaim",
      "outputs": [
        {
          "internalType": "uint256",
          "name": "",
          "type": "uint256"
        }
      ],
      "stateMutability": "view",
      "type": "function"
    },
    {
      "inputs": [
        {
          "internalType": "address",
          "name": "to",
          "type": "address"
        },
        {
          "internalType": "uint256",
          "name": "amount",
          "type": "uint256"
        }
      ],
      "name": "mint",
      "outputs": [],
      "stateMutability": "nonpayable",
      "type": "function"
    },
    {
      "inputs": [],
      "name": "name",
      "outputs": [
        {
          "internalType": "string",
          "name": "",
          "type": "string"
        }
      ],
      "stateMutability": "view",
      "type": "function"
    },
    {
      "inputs": [],
      "name": "symbol",
      "outputs": [
        {
          "internalType": "string",
          "name": "",
          "type": "string"
        }
      ],
      "stateMutability": "view",
      "type": "function"
    },
    {
      "inputs": [],
      "name": "totalSupply",
      "outputs": [
        {
          "internalType": "uint256",
          "name": "",
          "type": "uint256"
        }
      ],
      "stateMutability": "view",
      "type": "function"
    },
    {
      "inputs": [
        {
          "internalType": "address",
          "name": "to",
          "type": "address"
        },
        {
          "internalType": "uint256",
          "name": "value",
          "type": "uint256"
        }
      ],
      "name": "transfer",
      "outputs": [
        {
          "internalType": "bool",
          "name": "",
          "type": "bool"
        }
      ],
      "stateMutability": "nonpayable",
      "type": "function"
    },
    {
      "inputs": [
        {
          "internalType": "address",
          "name": "from",
          "type": "address"
        },
        {
          "internalType": "address",
          "name": "to",
          "type": "address"
        },
        {
          "internalType": "uint256",
          "name": "value",
          "type": "uint256"
        }
      ],
      "name": "transferFrom",
      "outputs": [
        {
          "internalType": "bool",
          "name": "",
          "type": "bool"
        }
      ],
      "stateMutability": "nonpayable",
      "type": "function"
    }
  ],
  "bytecode": "0x60806040523480156200001157600080fd5b506040518060400160405280600c81526020016b2132ba3a32b9102a37b5b2b760a11b815250604051806040016040528060048152602001632119aa2960e11b8152508160039081620000659190620002b3565b506004620000748282620002b3565b505050620000933369d3c21bcecceda10000006200009960201b60201c565b620003a7565b6001600160a01b038216620000c95760405163ec442f0560e01b8152600060048201526024015b60405180910390fd5b620000d760008383620000db565b5050565b6001600160a01b0383166200010a578060026000828254620000fe91906200037f565b909155506200017e9050565b6001600160a01b038316600090815260208190526040902054818110156200015f5760405163391434e360e21b81526001600160a01b03851660048201526024810182905260448101839052606401620000c0565b6001600160a01b03841660009081526020819052604090209082900390555b6001600160a01b0382166200019c57600280548290039055620001bb565b6001600160a01b03821660009081526020819052604090208054820190555b816001600160a01b0316836001600160a01b03167fddf252ad1be2c89b69c2b068fc378daa952ba7f163c4a11628f55a4df523b3ef836040516200020191815260200190565b60405180910390a3505050565b634e487b7160e01b600052604160045260246000fd5b600181811c908216806200023957607f821691505b6020821081036200025a57634e487b7160e01b600052602260045260246000fd5b50919050565b601f821115620002ae57600081815260208120601f850160051c81016020861015620002895750805b601f850160051c820191505b81811015620002aa5782815560010162000295565b5050505b505050565b81516001600160401b03811115620002cf57620002cf6200020e565b620002e781620002e0845462000224565b8462000260565b602080601f8311600181146200031f5760008415620003065750858301515b600019600386901b1c1916600185901b178555620002aa565b600085815260208120601f198616915b8281101562000350578886015182559484019460019091019084016200032f565b50858210156200036f5787850151600019600388901b60f8161c191681555b5050505050600190811b01905550565b80820180821115620003a157634e487b7160e01b600052601160045260246000fd5b92915050565b61096080620003b76000396000f3fe608060405234801561001057600080fd5b50600436106100f55760003560e01c80635c16e15e1161009757806395d89b411161006657806395d89b41146101fa578063a9059cbb14610202578063dd62ed3e14610215578063de5f72fd1461024e57600080fd5b80635c16e15e146101955780636d07b7e5146101b557806370a08231146101c85780637d263245146101f157600080fd5b806323b872dd116100d357806323b872dd1461014d578063270ef38514610160578063313ce5671461017157806340c10f191461018057600080fd5b806306fdde03146100fa578063095ea7b31461011857806318160ddd1461013b575b600080fd5b610102610256565b60405161010f919061078f565b60405180910390f35b61012b6101263660046107f9565b6102e8565b604051901515815260200161010f565b6002545b60405190815260200161010f565b61012b61015b366004610823565b610302565b61013f69021e19e0c9bab240000081565b6040516012815260200161010f565b61019361018e3660046107f9565b610326565b005b61013f6101a336600461085f565b60056020526000908152604090205481565b61013f6101c336600461085f565b610334565b61013f6101d636600461085f565b6001600160a01b031660009081526020819052604090205490565b61013f610e1081565b61010261039a565b61012b6102103660046107f9565b6103a9565b61013f610223366004610881565b6001600160a01b03918216600090815260016020908152604080832093909416825291909152205490565b6101936103b7565b606060038054610265906108b4565b80601f0160208091040260200160405190810160405280929190818152602001828054610291906108b4565b80156102de5780601f106102b3576101008083540402835291602001916102de565b820191906000526020600020905b8154815290600101906020018083116102c157829003601f168201915b5050505050905090565b6000336102f681858561046a565b60019150505b92915050565b60003361031085828561047c565b61031b8585856104fb565b506001949350505050565b610330828261055a565b5050565b6001600160a01b03811660009081526005602052604081205461035a90610e1090610904565b421061036857506000919050565b6001600160a01b038216600090815260056020526040902054429061039090610e1090610904565b6102fc9190610917565b606060048054610265906108b4565b6000336102f68185856104fb565b336000908152600560205260409020546103d490610e1090610904565b4210156104425760405162461bcd60e51b815260206004820152603160248201527f436f6f6c646f776e206e6f742066696e69736865642e2057616974203120686f6044820152707572206265747765656e20636c61696d7360781b60648201526084015b60405180910390fd5b3360008181526005602052604090204290556104689069021e19e0c9bab240000061055a565b565b6104778383836001610590565b505050565b6001600160a01b038381166000908152600160209081526040808320938616835292905220546000198110156104f557818110156104e657604051637dc7a0d960e11b81526001600160a01b03841660048201526024810182905260448101839052606401610439565b6104f584848484036000610590565b50505050565b6001600160a01b03831661052557604051634b637e8f60e11b815260006004820152602401610439565b6001600160a01b03821661054f5760405163ec442f0560e01b815260006004820152602401610439565b610477838383610665565b6001600160a01b0382166105845760405163ec442f0560e01b815260006004820152602401610439565b61033060008383610665565b6001600160a01b0384166105ba5760405163e602df0560e01b815260006004820152602401610439565b6001600160a01b0383166105e457604051634a1406b160e11b815260006004820152602401610439565b6001600160a01b03808516600090815260016020908152604080832093871683529290522082905580156104f557826001600160a01b0316846001600160a01b03167f8c5be1e5ebec7d5bd14f71427d1e84f3dd0314c0f7b2291e5b200ac8c7c3b9258460405161065791815260200190565b60405180910390a350505050565b6001600160a01b0383166106905780600260008282546106859190610904565b909155506107029050565b6001600160a01b038316600090815260208190526040902054818110156106e35760405163391434e360e21b81526001600160a01b03851660048201526024810182905260448101839052606401610439565b6001600160a01b03841660009081526020819052604090209082900390555b6001600160a01b03821661071e5760028054829003905561073d565b6001600160a01b03821660009081526020819052604090208054820190555b816001600160a01b0316836001600160a01b03167fddf252ad1be2c89b69c2b068fc378daa952ba7f163c4a11628f55a4df523b3ef8360405161078291815260200190565b60405180910390a3505050565b600060208083528351808285015260005b818110156107bc578581018301518582016040015282016107a0565b506000604082860101526040601f19601f8301168501019250505092915050565b80356001600160a01b03811681146107f457600080fd5b919050565b6000806040838503121561080c57600080fd5b610815836107dd565b946020939093013593505050565b60008060006060848603121561083857600080fd5b610841846107dd565b925061084f602085016107dd565b9150604084013590509250925092565b60006020828403121561087157600080fd5b61087a826107dd565b9392505050565b6000806040838503121561089457600080fd5b61089d836107dd565b91506108ab602084016107dd565b90509250929050565b600181811c908216806108c857607f821691505b6020821081036108e857634e487b7160e01b600052602260045260246000fd5b50919050565b634e487b7160e01b600052601160045260246000fd5b808201808211156102fc576102fc6108ee565b818103818111156102fc576102fc6108ee56fea26469706673582212209310f0d9a0738e849ec701d720a592aa715fbbbf1820d82bdc827d8e9d472afe64736f6c63430008140033",
  "linkReferences": {},
  "deployedLinkReferences": {}
}